:020000040800F2
:10000000001000209D0900084D090008690900083A
:1000100000000000000000000000000000000000E0
:10002000000000000000000000000000850900083A
:10003000000000000000000087090008890900088E
:10004000ED09000800000000ED090008ED090008B6
:10005000ED090008ED090008ED090008ED090008A8
:1000600000000000ED090008ED090008ED09000896
:10007000ED090008ED090008ED0900080000000086
:10008000ED0900080000000000000000ED09000874
:1000900000000000ED090008ED090008C103000898
:1000A00000000000ED09000800000000ED09000854
:1000B0000000000000000000000000000000000040
:1000C00010B5064C2378002B07D1054B002B02D02E
:1000D000044800E000BF0123237010BD040000208D
:1000E00000000000880C0008044B10B5002B03D062
:1000F0000349044800E000BF10BDC04600000000F6
:1001000008000020880C0008002243088B4274D3AA
:1001100003098B425FD3030A8B4244D3030B8B4208
:1001200028D3030C8B420DD3FF22090212BA030C11
:100130008B4202D31212090265D0030B8B4219D3F2
:1001400000E0090AC30B8B4201D3CB03C01A524112
:10015000830B8B4201D38B03C01A5241430B8B425A
:1001600001D34B03C01A5241030B8B4201D30B0343
:10017000C01A5241C30A8B4201D3CB02C01A52416A
:10018000830A8B4201D38B02C01A5241430A8B422D
:1001900001D34B02C01A5241030A8B4201D30B0216
:1001A000C01A5241CDD2C3098B4201D3CB01C01A30
:1001B000524183098B4201D38B01C01A524143093A
:1001C0008B4201D34B01C01A524103098B4201D328
:1001D0000B01C01A5241C3088B4201D3CB00C01A95
:1001E000524183088B4201D38B00C01A524143080D
:1001F0008B4201D34B00C01A5241411A00D2014632
:10020000524110467047FFE701B5002000F006F8A4
:1002100002BDC0460029F7D076E770477047C04658
:1002200040200D4A82B051690143516160215369F8
:1002300003400193019B094B9A688A4311002022D5
:100240000A4380219A609A680A439A6001225242C6
:100250001A6102B07047C0460010024000300240F0
:10026000F0B5002491B01C22002109A800F004FD83
:100270008021324D07946A6989020A436A616B6979
:1002800090260B400293029B802304210227012227
:100290009B000393F60503A8FE3BFF3B089101007A
:1002A000300005930692049700F0A1FB80230421FF
:1002B000DB000122039303230891300003A9059377
:1002C00006920497079400F092FB8021EA69890363
:1002D0000A43EA61EB691A4A0B40C5210193890080
:1002E000019B5358174D1B021B0A535080231B04BC
:1002F0001360EB68144A28001340EB602B68134A24
:1003000009A913402B602B68114A13402B60114B35
:1003100009940A93643BFF3B0D930B940C940E9449
:100320000F9400F0CDFB80236A689B0413436B603D
:10033000EB68094A1340EB6011B0F0BD00100240B9
:1003400000E100E000540040FF7FFFFFFFFFF7FFE8
:10035000FFFFFDFF0B02000001F8FFFFBFF34F8F0F
:10036000034B044ADA60BFF34F8FC046FDE7C04637
:1003700000ED00E00400FA050122074B10B59C686F
:10038000411822439A60884202D11868C04310BDC8
:10039000027801301A70F6E700300240054B10B5C4
:1003A000054906481C68FFF7E7FF201A43425841F9
:1003B000C0B210BDFC3B0008FC2B00000010000880
:1003C0000821334BF0B59A690A4235D0D869014308
:1003D000D96199692F48C90328D502211C68214396
:1003E0001960032101702021186801431960202140
:1003F0000A4249D0DA690A43DA61264A1078C4B25F
:10040000032835D0042C10D1002423480480012077
:1004100010701A688A431A608022596812020A43CF
:100420005A60082219680A431A60F0BD042419684A
:10043000214319600470D6E7022114000C400A42DF
:10044000D5D104263242D2D013495D6A0888134FB1
:1004500080B2EDB23D540F4806700888013080B27A
:10046000088081200D88C0008542C0D30C80BEE783
:100470009821D86949000143D961082118680143CE
:10048000196000231370D0E70122054B1A80CCE7D6
:10049000005400403A040020200000202C000020DE
:1004A0003804002010B5134C200000F0F1FA636806
:1004B000114A0320134001226360236893432360A1
:1004C000236807329343002223600C4B1A600C4BC5
:1004D0001968014019609A60DA601A615A61996975
:1004E0000132FF320A439A6100F034FB00F022FB34
:1004F00010BDC04600540040FFFFFFFD10E000E0CB
:100500000000014010B5FFF749FF002816D00C4C41
:100510000C4A236813408022920593420DD1FFF7C5
:10052000C1FF094B1A68094B1A601A68084B1A6018
:10053000226882F308881B68984710BDFFF70EFFFA
:10054000001000080000FE2F041000082400002006
:1005500028000020F7B52A4D2A4B6C78A97824068C
:10056000EA78090428790C43120204431443E21880
:10057000C0239B019A423ED26B79A9791B025B187A
:100580009BB2002B29D000F02FF9342000F044F961
:100590001D4E200000F07AF9042827D18023092776
:1005A000DB00E31800937B1EE85C7A1CEE5DA95C1F
:1005B000BA1CAA5C3602064309040E43120616430F
:1005C0000196124E2000019900F08AF9042813D1F7
:1005D000009B04340437A342E5D80023812219008C
:1005E000D200E95401339342FBD102E0013E002ED8
:1005F000CFD100F009F9F7BD013E002EE2D1F8E7B6
:100600002C00002000F0FFF7017D0000411F0000DA
:10061000F8B5802508242D041B4F1C4E3B6832681A
:100620009A4201D2FFF76EFF194B1A78012AF3D1D3
:10063000184AD567BFF34F8FBFF36F8F00221A7030
:10064000154B164A1B78DBB213701378DAB2062BFF
:100650000FD0772A14D0124B1D60124B1A68224318
:100660001A60012219680A431A601A6822431A6044
:10067000D2E73B680C4A9B183360FFF76BFFEAE751
:10068000FFF740FFE7E7C046340400203C040020A9
:100690003A04002004E100E02C0000204004002087
:1006A00000E100E00054004060EA00000123194A24
:1006B00010B511689943116011681942FCD1164CAC
:1006C000226813432360022322681A42FCD0F822D6
:1006D000236893431A0080231343F0222360636846
:1006E0009343636063680D4A134003226360636849
:1006F000934363600C2362681A42FCD1084800F0FF
:1007000081FA074800F08EFA1022236B934323638B
:1007100010BDC0460020024000100240FFF8FFFF5D
:1007200000127A0013B50120264B274C996901432A
:10073000996180219A69490502400192019ADA691A
:100740000A43DA61C022DB6912060B400093009B6A
:10075000236A1B021B0A13432362FFF7A7FFFA2138
:100760001A4B89001868FFF7CFFC8022184B01381C
:100770005204904204D3013B002BFAD1FFF7EEFD67
:10078000C021144A09065060236A1B021B0A0B434E
:1007900023620023936007331360FFF741FDFFF7E7
:1007A0005FFD01220C4B19680A431A600822196880
:1007B0000A431A60094B0A4A1B68F533FF3313607A
:1007C000FFF726FF0010024000ED00E000000020CF
:1007D000E12E000010E000E000540040340400204E
:1007E0003C04002070470000044B1A69120603D530
:1007F000034A5A60034A5A607047C04600200240CC
:1008000023016745AB89EFCD8023024A11690B4371
:1008100013617047002002403423020010B59A4350
:100820000400002A01D1002803D103490348FFF73F
:10083000D9FF034BDC6010BD8A040000A00C000847
:10084000002002400120074BDA68024209D1DA6831
:100850000018D20605D4D8680423184043425841F2
:10086000033070470020024010B50400FFF7EAFF94
:10087000012807D1002C01D1043010BDFFF7E2FFA1
:10088000013CF5E7002CF8D10520F6E7F8231B061C
:10089000C218802370B55B0206009A4204D38321FC
:1008A0000D484900FFF79EFFB0200003FFF7DCFF73
:1008B000042810D10225094CB020236900032B43E2
:1008C000236140236661226913432361FFF7CCFF54
:1008D0002369AB43236170BDA00C000800200240D7
:1008E0000023F7B50193F8231B06C21880230400E8
:1008F0000E005B029A4204D3A72112484900FFF779
:1009000071FFB0200003FFF7AFFF042818D10127C3
:10091000B0200D4D00032B693B432B61B3B2238004
:10092000FFF7A2FF042808D1B02002340194019BF4
:10093000360C1E800003FFF797FF2B69BB432B612A
:10094000FEBDC046A00C000800200240BFF34F8F40
:10095000034B044ADA60BFF34F8FC046FDE7C04641
:1009600000ED00E00400FA05BFF34F8F034B044A8B
:10097000DA60BFF34F8FC046FDE7C04600ED00E0F0
:100980000400FA0570477047024A13680133136088
:100990007047C04634040020704700000D4885466B
:1009A000FFF7FAFF0C480D490D4A002302E0D45826
:1009B000C4500433C4188C42F9D30A4A0A4C0023A9
:1009C00001E013600432A242FBD300F031F9FFF7DB
:1009D000A9FEFEE700100020000000200400002017
:1009E000C80C00080400002044040020FEE7F7B50E
:1009F000002302000C6800932000009BD84000D127
:100A0000FEBD0120009B984023000340044231D0EA
:100A1000486803250190180058434543019EED4363
:100A2000771E012F0BD88F68966847432E403743B7
:100A300097605768CE68A74374433C4354600C6981
:100A4000D76844432F403C43D460019C022C0BD117
:100A50004F69FF2B11D804000F26444366437C43A3
:100A6000136AB34323431362019C136860432B4012
:100A700003431360009B0133BCE70F261B0A5B4353
:100A80005B435E437B43546AB4431C435462EBE7CD
:100A9000084A012390420AD18022074B9203196928
:100AA0000A431A611A6905490A401A6100231800AD
:100AB0007047C0460054004000100240FFFFDFFFB7
:100AC0000122036830B593430360CB688D681B0235
:100AD00004682B43144D2C40234303604B68134C94
:100AE000036103680D691A43026083688A692340C1
:100AF000836083682A43DB0ADB021A438260002D8D
:100B000004D0802382681B02134383600268084B71
:100B10001A400B681A43026043684A692340134332
:100B20004360002030BDC046FFE0FFFFFF7FFFFFB6
:100B3000FFFFCFFF8022054B5205196900200A43B1
:100B40001A611A6902490A401A617047001002408E
:100B5000FFFFFFEF0122274B82B019680A431A609A
:100B6000022219681142FCD0F8211A688A43110048
:100B700080220A431A60012252420192019A1E49C0
:100B80000A400192019A5A600C2259681142FCD124
:100B90001A681A490192019A0A400192019A1A6050
:100BA000802292041968080010401142FAD11A6894
:100BB00013490A40F8211A6058605A6B8A431100A1
:100BC00080220A4301215A635A6B8A435A635A6B43
:100BD00003318A435A63BF221204D8621863019218
:100BE000019A9A6080229860596A52040A435A62B4
:100BF00002B07047001002400CF8FFF0FFFFF6FE55
:100C0000FFFFFBFFFA2110B58900FFF77DFA0022F4
:100C1000034B013858609A6005321A6010BDC04617
:100C200010E000E0014B18607047C0460000002053
:100C300070B500260C4D0D4C641BA410A64209D1C2
:100C4000002600F021F80A4D0A4C641BA410A642AD
:100C500005D170BDB300EB5898470136EEE7B300FD
:100C6000EB5898470136F2E7C00C0008C00C0008AA
:100C7000C00C0008C40C000803008218934200D185
:100C8000704719700133F9E7F8B5C046F8BC08BCE5
:100C90009E467047F8B5C046F8BC08BC9E467047F3
:100CA0002E2E2F436F72652F5372632F73746D3323
:100CB00032663078785F666C6173682E630000007E
:100CC000E9000008C100000800127A00FFFFFFFFE2
:100CD000FFFFFFFFFFFFFFFFFFFFFFFFFFFFFFFF24
:100CE000FFFFFFFFFFFFFFFFFFFFFFFFFFFFFFFF14
:100CF000FFFFFFFFFFFFFFFFFFFFFFFFFFFFFFFF04
:100D0000FFFFFFFFFFFFFFFFFFFFFFFFFFFFFFFFF3
:100FF000FFFFFFFFFFFFFFFFFFFFFFFFFFFFFF01FF
:1010000000100020F52800084126000849260008A5
:1010100000000000000000000000000000000000D0
:101020000000000000000000000000005126000841
:1010300000000000000000005326000855260008AC
:10104000452900080000000045290008452900083E
:1010500045290008452900084529000845290008B8
:10106000000000004529000845290008452900081E
:10107000452900084529000845290008000000000E
:101080004529000800000000000000004529000874
:10109000000000004529000845290008D91800086B
:1010A0000000000045290008000000004529000854
:1010B0000000000000000000000000000000000030
:1010C00010B5064C2378002B07D1054B002B02D01E
:1010D000044800E000BF0123237010BD88010020F8
:1010E000000000003C380008044B10B5002B03D072
:1010F0000349044800E000BF10BDC04600000000E6
:101100008C0100203C38000802B4714649084900AF
:10111000095C49008E4402BC7047C0460022430867
:101120008B4274D303098B425FD3030A8B4244D3AF
:10113000030B8B4228D3030C8B420DD3FF220902F1
:1011400012BA030C8B4202D31212090265D0030BB0
:101150008B4219D300E0090AC30B8B4201D3CB03A6
:10116000C01A5241830B8B4201D38B03C01A5241E8
:10117000430B8B4201D34B03C01A5241030B8B42EA
:1011800001D30B03C01A5241C30A8B4201D3CB02D5
:10119000C01A5241830A8B4201D38B02C01A5241BA
:1011A000430A8B4201D34B02C01A5241030A8B42BD
:1011B00001D30B02C01A5241CDD2C3098B4201D3D5
:1011C000CB01C01A524183098B4201D38B01C01A53
:1011D000524143098B4201D34B01C01A52410309CA
:1011E0008B4201D30B01C01A5241C3088B4201D379
:1011F000CB00C01A524183088B4201D38B00C01A26
:10120000524143088B4201D34B00C01A5241411A4C
:1012100000D20146524110467047FFE701B5002059
:1012200000F0F0F802BDC0460029F7D076E770471D
:1012300003460B437FD4002243088B4274D3030937
:101240008B425FD3030A8B4244D3030B8B4228D3D8
:10125000030C8B420DD3FF22090212BA030C8B42FE
:1012600002D31212090265D0030B8B4219D300E09E
:10127000090AC30B8B4201D3CB03C01A5241830B23
:101280008B4201D38B03C01A5241430B8B4201D3D3
:101290004B03C01A5241030B8B4201D30B03C01AFC
:1012A0005241C30A8B4201D3CB02C01A5241830A76
:1012B0008B4201D38B02C01A5241430A8B4201D3A5
:1012C0004B02C01A5241030A8B4201D30B02C01ACF
:1012D0005241CDD2C3098B4201D3CB01C01A524136
:1012E00083098B4201D38B01C01A524143098B42BF
:1012F00001D34B01C01A524103098B4201D30B01A8
:10130000C01A5241C3088B4201D3CB00C01A5241CC
:1013100083088B4201D38B00C01A524143088B4291
:1013200001D34B00C01A5241411A00D2014652412A
:10133000104670475DE0CA0F00D04942031000D349
:101340004042534000229C4603098B422DD3030A9E
:101350008B4212D3FC22890112BA030A8B420CD3AE
:10136000890192118B4208D3890192118B4204D3D7
:1013700089013AD0921100E08909C3098B4201D357
:10138000CB01C01A524183098B4201D38B01C01A91
:10139000524143098B4201D34B01C01A5241030908
:1013A0008B4201D30B01C01A5241C3088B4201D3B7
:1013B000CB00C01A524183088B4201D38B00C01A64
:1013C0005241D9D243088B4201D34B00C01A52413B
:1013D000411A00D20146634652415B10104601D3C8
:1013E0004042002B00D54942704763465B1000D352
:1013F000404201B5002000F005F802BD0029F8D0F8
:1014000016E770477047C046D0400B00D1409C465D
:10141000203AD340184352426346934018437047E2
:1014200001220023FF2070B5074E084D5242084CA0
:101430005900F05458550A53064C0A530649CA54E9
:101440000133082BF3D170BD22070020A401002036
:1014500032070020AC0100202A07002010B504004C
:10146000B4290ED8074B64001954FA20C000484331
:10147000B421FFF7DDFE0300F533034AFF339BB2CF
:10148000A35210BD22070020320700200B00FA22D1
:10149000F53BFF3B9BB2D200934202D8014B400088
:1014A000C152704732070020642907D8044B054A0F
:1014B0001B784000D35C5943034BC1527047C04670
:1014C000CC000020CD0000201207002010B5040041
:1014D00088B01422002103A802F0BFF8104B226844
:1014E0009A421BD180200F4B80009969014399617A
:1014F00080219A69890202400192019A5A699020DA
:101500000A435A615B69C0050B400293029B0123A9
:1015100003A903930233049301F034FE08B010BD15
:101520000024014000100240054B00201A88054BA2
:101530009A4204D1044B1888431E9841C0B27047A8
:10154000003C000855AA0000023C0008044B0020A3
:101550001A88044B9A4201D1034B18887047C04641
:10156000003C000855AA0000023C0008F8B5050040
:101570000C00FFF7D9FF00280ED0FFF7E7FF094B5B
:1015800000219C46061C82B2271C301CA24200D9B6
:10159000381C80B2884200DCF8BD6346CB5C6B54DB
:1015A0000131F2E7043C0008FF23F0B59B00050081
:1015B0000C0085B0994202D9002005B0F0BD01F0C1
:1015C000E9FC0028F8D10126264F019000906946D9
:1015D00001A80297039601F08BFD002802D001F0CC
:1015E000EDFCE9E70023390030001F4A01F01AFD45
:1015F000031EF4D1220030001C4901F013FD002825
:10160000EDD12E0067087F007F19BE4214D1012062
:10161000044209D016492B19013B1A78611800239E
:1016200001F000FD0028DAD10023124AA34212DBA8
:1016300001F0C4FC0120C0E7737832781B021A4322
:101640000C4B711BC9180120002301F0EBFC023682
:101650000028DAD0C3E7985CE95C8842BFD1013347
:10166000E4E7C046003C000855AA0000023C000820
:10167000033C0008043C00087FB51022002102A8AA
:1016800001F0EBFF8020094A80025169014351615A
:10169000536901A9034000939020009BFF23C005DC
:1016A000019301F06FFD07B000BDC046001002407D
:1016B000F0B5002491B01C22002109A801F0CDFF53
:1016C0008021344D07946A6989020A436A616B6913
:1016D00090260B400293029B8023042102270122C3
:1016E0009B000393F60503A8FE3BFF3B0891010016
:1016F000300005930692049701F0C8FE8023042170
:10170000DB000122039303230891300003A9059312
:1017100006920497079401F0B9FE8021EA698903D3
:101720000A43EA61EB691C4A0B40C5210193890019
:10173000019B5358194D1B021B0A535080231B0455
:101740001360EB68164A174E1340EB602B68164A7D
:1017500009A913402B602B68144A280013402B6002
:10176000134B09940A9333780B945B000D930C94FC
:101770000E940F9401F0F4FE80236A689B041343D7
:101780006B60EB680B4A1340EB60307800F014F8A4
:1017900011B0F0BD0010024000E100E00054004034
:1017A000FF7FFFFFED060020FFFFF7FFFFFFFDFFBC
:1017B0000B02000001F8FFFF024B4000C0B218709E
:1017C0007047C0465404002001220A4B19680A439E
:1017D0001A60082219680A431A60102219680A431D
:1017E0001A60802219680A431A60202219680A4385
:1017F0001A607047005400400821084B1A688A4359
:101800001A601A6849188A431A601A6870318A4344
:101810001A601A6860398A431A60704700540040A1
:10182000962310B59B000C00994202D8002901D1E3
:1018300010BD1C000028FBD022000100044801F06C
:1018400003FF0022034B1A80034B1C80F0E7C046C5
:1018500064040020BC060020BE060020094B0A4993
:101860001A88496A094892B2C9B281541A88013269
:1018700092B21A80962219889200914201D30022D6
:101880001A807047C006002000540040FC01002070
:101890000D4B0E491A8892B28A5C0D49D2B28A6207
:1018A0001A88013292B21A800A4A19881288914223
:1018B00001D300221A80962219889200914201D306
:1018C00000221A807047C046BC0600206404002035
:1018D00000540040BE06002070B5474D474C2B68B1
:1018E00001332B60FA232A68DB019A4214D92000C5
:1018F00001F01EFE6368424A1340012263602368C0
:10190000934323602368073293432360FFF7D0FE9D
:10191000FFF75AFF00232B600822A369134228D047
:10192000FF20A36937495B0C09785B0003409942AB
:101930003BD1354D2B88002B0AD0FFF75DFF29885E
:10194000324889B200F060F900232B80FFF73CFF9A
:101950008022A369520213421BD10823E269134378
:10196000E36104232268134301222360284B1A6099
:1019700070BD1023A2691A421BD1A3699B071CD416
:10198000A3695B071CD42023A2691A421BD1A36957
:10199000EEE7A169082311420BD0E2691343E3612A
:1019A0000223226813432360E2E7E3691A43E261FA
:1019B000DEE7E2691343E361DAE7FFF769FFD7E7A0
:1019C000FFF74CFFD4E7E2691343E3610123A26907
:1019D0001A4200D1A3610024FFF70EFF0A4D0B4805
:1019E000298889B200F010F92C80FFF7EDFE084B32
:1019F0001C60084B1C60BBE76004002000540040E2
:101A0000FFFFFFFD54040020C0060020FC01002061
:101A10005C0400205804002080230F4A82B09B05FC
:101A20000E49581819000068043308609342F7D132
:101A300001200B4A9169014391619369032203409C
:101A40000193019B074B19689143196019680A4378
:101A50001A6002B07047C046C0000020001000E8C5
:101A6000001002400000014070B50C4C2021200005
:101A7000FFF77CFD002801D1002070BD1525084B23
:101A80001B78237020212000FFF78EFD002801D055
:101A90000120F2E7013D002DF4D1EDE7CD06002055
:101AA000ED060020F0B587B00C00070016000021FD
:101AB000142201A81D0001F0D0FD032C09D18020C3
:101AC000154A800091690143916193690340009335
:101AD000009B902001A9C0050197029403960495EC
:101AE00001F050FB032C14D104210C480C4B416134
:101AF000C221036000230122FF31C1618361411DC6
:101B000043608360C36002610362CB77826200F04E
:101B1000C3FF07B0F0BDC04600100240BC0100206A
:101B200000240140F0B500249FB0060058220F00A9
:101B300008A8002101F091FD0C22210005A80494C1
:101B400001F08BFD2E4D01A92B6828009C6280239B
:101B50005B01029380235B050196039301F0D8F8A3
:101B6000280001F04FF92600280001F03DF80A2175
:101B7000280001F065F8280001F042F980239B005D
:101B8000184208D0280001F0BFF86A462021A300BF
:101B90005218D05036180134162CE5D1089800237D
:101BA00001006C4620259A006419A258904200D288
:101BB0001000914200D911000133162BF1D14018C9
:101BC000301A1421FFF7AAFA04AC0C2F08D1022115
:101BD0002070000A60702000FFF722FE1FB0F0BDE9
:101BE0000021082FF7D180235B01984200DB0548D4
:101BF000FF2304495843FFF71BFB01212070EAE74C
:101C0000BC010020FF0F0000F0B500258DB00E00D4
:101C100004001C22290005A8049501F01EFD012ED8
:101C200000D8C4E02378072B00D9D3E00822D31AC8
:101C3000DAB2DBB20192B34202D3013EF3B20193B6
:101C4000002701263D000137E05D052831D8CD4B46
:101C500022785B19985401382378042805D8CA4A99
:101C6000FFF752FA2C343C61820030005B19984037
:101C700000230122190080B2FFF714FF3000227800
:101C8000C149521990400B78834330000B70227881
:101C9000BE49521990400B78BD4A83430B7023789C
:101CA0005B19D654BB4B22785D19AE540022BA4B57
:101CB0001A80019B9F42C5DB0DB0F0BD30005B195F
:101CC0009840002331001A0080B2D5E730005B193C
:101CD0009840002303211A0080B2CDE730005B1941
:101CE000984000220323310080B2FFF7DBFE300072
:101CF0002278A549521990400B7883430B7033002A
:101D00002278A24952199340002208780343DBB29B
:101D10000B7023789E495B19CA549E4B21785D193C
:101D20006E549D4BC4E730005B1998401178814395
:101D30003000117022789549521990400B78944ADE
:101D400083430B70237830005B19D654914B227873
:101D50005B199E54237800225D190123A8401900C5
:101D600080B2FFF79FFEA4E730005B1998400300A4
:101D7000300011780B43DBB213702278834952197B
:101D800090400B78824A83430B70237830005B19B4
:101D9000D65400227F4B21785B195A547E4B012187
:101DA0001A8023785D19A840032380B2D9E7012E59
:101DB00000D081E72778072F52D8082471492200E4
:101DC00004A801F041FCE11B04AB89B2D819FFF76C
:101DD00027FD71E71A00103AD2B2072A27D8082344
:101DE0009B1ADFB2DBB2B34201D3013EF7B29026B9
:101DF0000025F6052378634A2800D2185219103AB4
:101E00001178013501290CD1625D002A0CD0012A1C
:101E100007D111001B18103B9940300089B201F026
:101E20006DFAAF42E6DC47E71B18103BF4E7182BCE
:101E300057D19026F605534BEB5C012B0CD1607803
:101E400019002841A940020089B21A40184200D066
:101E50001A00300001F052FA0135082DEBD12BE7C2
:101E60003B00203B082B21D84C4F3D703100902087
:101E7000A940C00589B201F03BFA49493B78685452
:101E8000A8401843C0B201353870082DEED12A00A1
:101E900004A801F0D9FB292120783B78091A02AA6D
:101EA000137489B2203804AB181890E73800303822
:101EB000C0B2072808D8334B08211B5C022B00D086
:101EC000FAE6FFF72FFEF7E638004038C3B20F2BD3
:101ED00020D82C4B40101B5C022B00D0ECE60C21D0
:101EE000EFE71A00503AD2B2072A23D808239B1AE8
:101EF000DDB2DBB2B34201D3013EF5B20026207859
:101F0000503880190136A15DC0B2FFF7A7FAAE4282
:101F1000F5DBD1E63C00503CE3B2072B44D8214925
:101F2000082204A801F090FB5821C91B04AB89B218
:101F300018194CE71A00603AD1B20F2940D808238B
:101F40005210013E9B1A76101D1CF2B2DBB2934276
:101F500000D9351C2600EDB26D006519B54200D1DF
:101F6000AAE6B1787378207809021943331BC318A5
:101F7000603BD80FC0184010C0B2FFF787FA023696
:101F8000ECE7C046FE060020CB060020CC06002071
:101F90002A0700200A07002008070020F506002075
:101FA000F6060020220700203C00603CE3B20F2B25
:101FB0003CD87249102204A801F046FB7021B4E716
:101FC00018007038C0B2172852D80321FFF7A6F8BE
:101FD000082503212D1A701EFFF72AF92B1CC2B207
:101FE000EDB2954200D9031C032225000127DBB284
:101FF0005343E3180193019BAB4200D15CE66E783A
:10200000AB7836061B041E43EB7820781B021E4378
:102010002B1BC01803217038FFF70AF93100C0B23A
:1020200000F0E0FB564B03351F70E4E73E00703EC6
:10203000F3B21F2B35D8534B04AC1B680193280017
:102040000321FFF7F5F8019B80001818036803359A
:102050001B0A237003681B0C63700368A3700334AE
:10206000182DECD1902104ABC91B89B29819AEE6AA
:102070001A007032D2B2072A2FD808239B1ADDB279
:10208000DBB2B34201D3013EF5B2002620787030B6
:1020900080190136A15DC0B2FFF706FAAE42F5DB4A
:1020A0000AE63B007033DBB2072B3BD80024364EE8
:1020B000364D62003378505B354AD15CFFF7B8F893
:1020C000082202AB9B18185501349442F1D1982193
:1020D0003800C91B89B29038E5E6A02B27D1677874
:1020E000042F00D9E8E50024274D029403942B78AF
:1020F0002649274E6200505AF15CFFF799F802AB6F
:1021000018550134082CF2D100232F70287802AA28
:10211000D25C305C590042431C4801334252082BC8
:10212000F4D1C9E5A02F1DD1012117484FE6FF2B9F
:102130000ED1022E00D0BFE50123E3566278002BBA
:1021400000DCB9E5134B1A700122134B1A70B3E58A
:10215000FD2B00D0B0E56378012B00D0ACE50F4A31
:102160001370A9E5FF2F02D101210A482FE6FE2FA7
:1021700000D0A1E501210A4829E6C0463207002027
:1021800006070020D8070020CC00002012070020FE
:10219000CD000020ED060020EE060020F406002011
:1021A000C000002010B572B600F0AEFEFCE70000E3
:1021B000F8B50125FA270026464CFF012368AB43FA
:1021C0002B43236023682B425CD0434CFA272368BF
:1021D00002261D4325600025FF012368334257D0A6
:1021E000F8222368FA2793431A00802313432360BD
:1021F000012300250226626BFF0113436363636BB7
:1022000033424BD0F822636B802693431A0080231D
:10221000134363636368314AFA271A40A0239B0380
:1022200013430F226360E36A00259343E362802334
:1022300022685B0413432360B604FF012368334222
:1022400032D0F0226368FA27934363606368244ABC
:10225000002513400322636063680C2693431A0031
:10226000022313436360FF0163683340082B21D1CD
:102270001C4801F0AFF9032000F066FB00281FD0D6
:10228000FFF790FF0136BE429CD900F03DFE99E772
:102290000135BD42A1D900F037FE9EE70135BD42B0
:1022A000ADD900F031FEAAE70135BD42C6D900F034
:1022B0002BFEC3E70135BD42D6D900F025FED3E79A
:1022C0000422636B93436363236B0C329343236356
:1022D000F8BDC0460020024000100240FFFFC2FFD0
:1022E000FFF8FFFF006CDC02F7B5FFF795FB00F08D
:1022F0004FFBFFF75DFFFFF7BFF900F0D1F900F0EA
:10230000E9F9A44D20212800FFF730F9A24B041E63
:1023100043D145221A702A7020212800FFF744F982
:10232000002834D0FFF77CF8082000F04DFA9B48D5
:1023300001F016F890279A4801F012F8FFF7B8F963
:10234000FFF742FAFF05974B1B78DAB2002B27D034
:10235000954C200001F0ECF86368944A8F481340D4
:102360000122636023689343236023680732934309
:10237000236000F0C9FF8A4800F0C6FFBFF34F8F0B
:102380008B4B8C4ADA60BFF34F8FC046FDE70134B8
:10239000142CC1D900F0B8FDBEE72A781A70C1E745
:1023A000854B1A60854B1B78002B25D08448854BC4
:1023B000416A1B78844C5B001B5B994200D34262EC
:1023C0007D4C0026A4468149814B824A6446002503
:1023D0002560814D7400645B002C00D095E0157879
:1023E000002D00D091E08C88BC621D700136083150
:1023F00001330132082EE9D1784B1B78002B28D00D
:102400007748784B426A9A4201D9002343626A4C6A
:102410000023A4466D496E4A654600262E60456A33
:10242000714E2C005D00AE5BB44200D997E0167887
:10243000002E00D093E06D4EF65C002E00D08EE0B2
:1024400001248D88BD611470013308310132082BDD
:10245000E2D1674E674D3368002B0CD000F0B4FA20
:10246000654C2368984206D92B6801332B6000F035
:10247000ABFA0A3020602B68322B1AD94A4C200064
:1024800001F056F86368494A1340012263602368EB
:10249000934323602368073293432360FFF708F9CF
:1024A000FFF792F9FA20400000F094FA002333601D
:1024B0002B60524D2B78002B16D000243E4E00236B
:1024C00033604F4BE35C042B09D1033BA3404D4ADF
:1024D0009BB213804C4AE3B2137000F0F9F9013457
:1024E000082CECD100232B70484D2B78002B00D109
:1024F00029E772B6FFF7DCF81524FFF7B5FA0028D4
:1025000041D062B600232B701DE7456AA5420AD868
:102510001D78002D07D11578002D04D18C88BC6161
:1025200001241C7062E7456AAC4200D35EE71C7868
:10253000012C00D05AE714780094002C00D055E705
:10254000446A214D01941F4C24786400645B019D12
:10255000A54200D94AE78C88BC62009CE1E7224C86
:10256000466A655BAE4200D86EE71578012D00D053
:102570006AE71E4DED5CEEB2002D00D064E78D8859
:10258000BD62167060E7013C002CB6D100F0BCFCC7
:10259000B2E7C046CD060020ED0600204807002027
:1025A00090070020F406002000540040FFFFFFFDCC
:1025B00000ED00E00400FA0560040020CB060020D6
:1025C00000440140CC000020C2000020D4000020C4
:1025D000C20600200A07002012070020CC060020B7
:1025E000004801401F4E0000320700202A0700204B
:1025F0005C04002058040020F0060020060700209C
:10260000FE06002008070020CA060020EE06002073
:1026100001200A4B82B099690143996180219A692E
:10262000490502400092009ADA690A43DA61DB69DF
:102630000B400193019B02B07047C046001002405E
:1026400010B500F061FCFCE710B500F05DFCFCE7A4
:102650007047704710B500F0ABF910BD0B4A0C493C
:102660000300891A0B4A10B51068002801D10A48E6
:1026700010601068C3188B4206D900F0BBFF0C2312
:1026800003600120404210BD1360FCE7000400001D
:1026900000100020440700201808002070470000A8
:1026A00009480A4B10B503602F2343600023084AF2
:1026B0008360C26003614361836100F0BFFE002854
:1026C00001D0FFF76FFD10BD480700200044014016
:1026D000FFFF000009480A4B10B503602F23436039
:1026E0000023084A8360C26003614361836100F094
:1026F000A5FE002801D0FFF755FD10BD9007002072
:1027000000480140FFFF000003680F4A82B0934277
:102710000BD180200D4A8002916901439161936938
:1027200003400093009B02B07047094A9342FAD1DC
:102730008020064AC0029169014391619369034078
:102740000193019BEFE7C0460044014000100240A6
:10275000004801400368084A934205D1074A0849E6
:1027600093690B4093617047064A9342FBD1034A39
:1027700005499369F5E7C046004401400010024056
:10278000FFFFFDFF00480140FFFFFBFF7123C04634
:10279000C046C046C046C046C046C046C046C04609
:1027A000C046C046C046C046C046C046C046C046F9
:1027B000C046C046C046C046C046C046C046013BB3
:1027C000DBB2002BE3D1704710B50421040000F008
:1027D00007FF024B1860024B1C7010BDD807002089
:1027E000DC0700200A00074B10B5090E1C68130A0D
:1027F000DBB209021943FF231B041A408000114376
:10280000015110BDD8070020902130B517230125B4
:102810002E4AC9052C009C40204232D01488A4B214
:102820008C61C046C046C046C046C046C046C04691
:10283000C046C046C046C046C046C046C046C04668
:10284000C046C046C046C046C046C046C046C04658
:10285000C046C046C046C046C046C046C046C04648
:10286000C046C046C046C046C0461488A4B28C626A
:10287000C046C046C046C046C046C046013BC9D25D
:1028800030BD1488A4B28C61C046C046C046C04664
:10289000C046C046C046C046C046C046C046C04608
:1028A0001488A4B28C62C046C046C046C046C0462A
:1028B000C046C046C046C046C046C046C046C046E8
:1028C000C046C046C046C046C046D1E70807002003
:1028D00010B572B6054B064A1B7812689B009858D3
:1028E000FFF792FF62B6FFF751FF10BDCA06002046
:1028F000D80700200D488546FFF7D0FE0C480D494B
:102900000D4A002302E0D458C4500433C4188C424A
:10291000F9D30A4A0A4C002301E013600432A242B0
:10292000FBD300F06DFEFFF7DFFCFEE70010002098
:10293000C0000020840100205C38000888010020CD
:1029400018080020FEE7000070B50500FA200D4BC6
:1029500080001978FEF7E2FB0B4B01001868FEF7C8
:10296000DDFB00F0DFFA04000120002C09D1032D6B
:1029700007D802382200290000F09CFA2000034BFF
:102980001D6070BD18010020140100201C010020F2
:102990001023064A10B5116803200B431360FFF79C
:1029A000D3FFFFF735FE002010BDC04600200240D7
:1029B000034A044B11681B785B1813607047C046CC
:1029C000E007002018010020014B18687047C0463E
:1029D000E007002070B50400FFF7F6FF0500631C58
:1029E00002D0044B1B78E418FFF7EEFF401BA04217
:1029F000FAD370BD18010020002373B503210193A1
:102A0000036804009A680A40012A07D11968114234
:102A100001D0002076BDDA681204FAD499681B4A06
:102A2000114208D010230120A26B1343A363E36B70
:102A30000343E363EEE7012299680A439A60144B6B
:102A400014491868FEF76AFB0190019B002B19D10D
:102A5000FFF7BAFF0125060023681B682B42D8D177
:102A6000FFF7B2FF801B0228F6D923681B682B42B0
:102A7000F2D11023A26B01201343A363E36B1D4328
:102A8000E563C7E7019B013B0193DEE71700008088
:102A90001401002040420F00F8B504000120002C72
:102AA00000D180E0A36B002B06D122003432E36317
:102AB00020001370FEF70AFDA36BDB0600D587E04C
:102AC00023680422996808001040114200D07FE07A
:102AD000A26B4249114002220A430321A2639A6871
:102AE0000A40012A05D1196811420ED1DA68120490
:102AF0000BD41821DA688A43A1680A43DA6019699D
:102B000062688900890811431961DA6834490A400A
:102B1000DA60A26A267E571E7A1E9741617EE268BD
:102B2000C903B6030E43A57E1643226969033F031A
:102B30000E43022A00D10420621DD27FE17E5200A2
:102B400032433A430243012904D1002D2CD1802184
:102B500049020A43C220E169FF30814202D0206A63
:102B600001430A438020D96840051143D960E16AD6
:102B7000814202D0481E062807D8072558692940F7
:102B8000A8435861586901435961DB6815490B40F6
:102B9000934211D100200322E063A36B93431A00F8
:102BA00001231343A363F8BD2020A56B2843A06332
:102BB000E06B0143E163CDE71222A36B0120934355
:102BC0001A0010231343A363E36B0343E363EAE7B1
:102BD0001023A26B01201343A363E4E7FDFEFFFF74
:102BE0001902FEFFE7FF3F83036870B59B6804008E
:102BF00002205B071AD4250034352B78012B15D021
:102C000001232B70637E012B11D1A36B0B4A002093
:102C10001A4080235B0013431C22A363E0632870E7
:102C200023681A609968183A0A439A6070BD2000B8
:102C3000FFF7E2FE0028E8D0F8E7C046FEF0FFFF0D
:102C4000F8B5456904000E00082D0DD00368012079
:102C5000DB680C25034207D02023A26B34341343D6
:102C6000636000232370F8BDFFF7AEFE0700236802
:102C70001A68154222D08022A16B92000A43A263F7
:102C8000C022D9681201114212D1A27E002A0FD1AE
:102C90001A6812070CD59A68520727D40C215A6873
:102CA0008A435A60A26B1749114001220A43A2636A
:102CB000207E002823D10C221A60D4E7721CD7D0C2
:102CC000002E0DD12A0023681B681A401D42CED168
:102CD0000423A16B34340B43636003202270C2E7EA
:102CE000FFF772FEC01BB042ECD8C0E72022A16BF8
:102CF0000A43A2630122E16B0A43E263D8E70020A2
:102D0000B1E7C046FEFEFFFF0368186C7047000085
:102D1000F0B50023040085B0039334342378020017
:102D2000C66A0220012B2FD00138207013680427B7
:102D30009D68AC463D40019565463D4251D10F68C6
:102D40002A4D3A00AC464D68B840103A654537D038
:102D50009D6A284398628020400586420FD0013E3C
:102D6000062E0CD907205D6989680540A94206D066
:102D70005D69014085435D615D6929435961012AAF
:102D800004D900200023237005B0F0BD184A80212B
:102D90001368102F12D0C9030B431360102FF0D10A
:102DA000144B15491868FEF7B9F90A2343430393F6
:102DB000039B002BE5D0039B013BF8E70904EBE7FD
:102DC000996A81439962012ADBD853425A4152429F
:102DD0000749920D9305094A08689B1803400B6048
:102DE000CFE72023916B0B439363CBE701100000E7
:102DF000082701401401002040420F00FFFFBFFFE1
:102E0000806B7047F8B50600343633780400022032
:102E1000012B46D001230321337023689A680A40AE
:102E2000012A05D1196811423CD1DA68120439D45B
:102E3000A26B1F49114002220A430321A263DD68ED
:102E4000DA688A43DA608022996812060A439A6037
:102E5000FFF7BAFD070023689A68002A0EDB0322F9
:102E6000D96815400D43DD60A36B002093431A0021
:102E700001231343A3630023337012E0FFF7A4FD83
:102E8000C01B0228E7D923689B68002BE3DA1222D3
:102E9000A36B012093431A0010231343A363002361
:102EA0003370F8BD2023A26B01201343A363E2E734
:102EB000FDFEFFFF30B5FF2503242A000440E40097
:102EC000A24089012940D243A140C3B200280ADBB5
:102ED000C0240B4B80088000C018A40003591A407E
:102EE0001143015130BD0F200340083B05489B08AA
:102EF0009B001B18D86902401143D961F2E7C04614
:102F000000E100E000ED00E0BFF34F8F034B044A07
:102F1000DA60BFF34F8FC046FDE7C04600ED00E02A
:102F20000400FA058022431E5204012093420DD270
:102F3000C021074A07485360036A09061B021B0A9F
:102F40000B43036200200723906013607047C04664
:102F500010E000E000ED00E00C4A1021D06830B530
:102F600003000B40084205D002230948C4692343EB
:102F7000C3610B000420D168014205D00121044C3B
:102F80000343E5692943E161D36030BD002002407D
:102F9000E8070020064B00201A69120606D5054AEC
:102FA0005A60054A5A6018690006C00F7047C0464B
:102FB0000020024023016745AB89EFCD8023034AFF
:102FC000002011690B4313617047C0460020024086
:102FD00070B50400FFF7F8FC01260500104BDA6815
:102FE000324211D12022D968114200D0DA60D9686A
:102FF000102208001040114202D1DB685B0708D59F
:10300000FFF7AAFF012004E0621CE8D0002C01D1E8
:10301000032070BDFFF7D8FC401BA042DED9F7E7C4
:1030200000200240F0B585B003931C4B0191029241
:103030001A7E04000220012A2ED0012218481A7696
:10304000FFF7C6FF002824D12600012C02D0022C55
:1030500000D004260024029803992201FEF7D4F937
:10306000002201270D4B0F4DDA612B69019A3B437A
:103070002B6163009B1880B218800948FFF7A8FFF6
:103080002B69BB432B61002803D1E419E3B29E42B4
:10309000E1D80022014B1A7605B0F0BDE807002008
:1030A00050C30000002002400022064BDA61064BAC
:1030B000043219690A431A61402219690A431A61E4
:1030C0007047C046E8070020002002400022064B5F
:1030D000DA61064B023219690A431A6140225861CB
:1030E00019690A431A617047E8070020002002406E
:1030F000F8B5214F04003B7E0E000220012B0CD0BE
:1031000001233B7623681D48012B12D1FFF760FF96
:10311000002803D0012000233B76F8BDFFF7C4FF51
:103120001648FFF755FF0421154A13698B431361B5
:10313000F1E7FFF74DFF0028ECD101235B4233603C
:1031400065680130A36862689B029B18AB42E2D9B4
:103150002800FFF7BBFF0948FFF73AFF0221084AA2
:1031600013698B431361002801D03560D3E78023B6
:10317000DB00ED18E6E7C046E807002050C300007A
:10318000002002400023F0B587B00A681400DC403C
:1031900001D107B0F0BD012514009D402C400194E1
:1031A0002A4200D195E04A685E00944603226446B4
:1031B00022400324B440E4430294541E012C2AD834
:1031C0008768029C2740CC68B4403C4384604468D4
:1031D0000127AC432500644624093C409C402C4315
:1031E0004460C568029C25408C68B4402C43C46090
:1031F000022A12D1DC080725A4000419276A0394C7
:103200000F241D40AD00AC40A7430C69AC402743E0
:10321000039C276201E0032AE3D10468029DB240C7
:1032200025402C0014430460C0246246A4022242BC
:103230004FD00125284A90279469FF052C439461BB
:1032400092699C082A400592059A244AA400A41871
:103250000F2202351D40AD00AA40A6689643002209
:10326000B8420CD01E4F0132B84208D01D4F013277
:10327000B84204D01C4F0132B84200D00232AA40FA
:1032800067463243A260194A019C9668019DE44357
:103290003543FF0201D43500254067469560D66866
:1032A000019D3543BF0201D4350025406746D560F6
:1032B0005668019D3543BF0301D43500254067465C
:1032C00055601568019E2E43FF0301D425402E0052
:1032D0001660013359E7C04600100240000001406B
:1032E0000004004800080048000C004800040140A9
:1032F00000690840431E9841C0B27047002A01D0BF
:10330000816170478162FCE770B5050002233D359D
:103310002B700368104A196A0400114207D1196A18
:103320000E4A114203D101211A688A431A60200013
:10333000FFF710FA23000020463318703C34083B96
:10334000187058709870D870187158719871D87139
:103350002870207070BDC0461111000044040000A8
:103360000200030001203D321178814215D1022173
:1033700011701B68DA680243DA600B4A934202D08C
:103380000A4A93420AD107219A6800200A40062A75
:1033900003D0012219680A431A6070471A68104363
:1033A00018600020F9E7C046002C014000040040EE
:1033B0001C4A10B50368904202D01B4CA04208D1B1
:1033C0007024A3434C68234390420BD0164CA04278
:1033D00008D0164CA04205D0154CA04202D0154C86
:1033E000A04203D1144C2340CC6823438024A34340
:1033F0004C69234303608B68C3620B68836290420D
:1034000005D00B4B984202D00A4B984201D10B6970
:103410000363012242610369134202D003699343AB
:10342000036110BD002C014000040040002000405A
:103430000044014000480140FFFCFFFF70B504005C
:103440000120002C21D025003D352B78DAB2002B4D
:1034500005D123003C3320001A70FFF755F90223F1
:103460002B702068211DFFF7A3FF220001230020FD
:10347000463213704534083A137053709370D3700A
:1034800013715371937123702B7070BDF7B50023C6
:1034900002000C6800932000009BD84000D1FEBDC4
:1034A0000120009B984023000340044231D048682B
:1034B00003250190180058434543019EED43771EB4
:1034C000012F0BD88F68966847432E40374397608B
:1034D0005768CE68A74374433C4354600C69D7686F
:1034E00044432F403C43D460019C022C0BD14F69D4
:1034F000FF2B11D804000F26444366437C43136A14
:10350000B34323431362019C136860432B4003437E
:103510001360009B0133BCE70F261B0A5B435B4330
:103520005E437B43546AB4431C435462EBE70000A0
:10353000084A012390420AD18022074B920319695D
:103540000A431A611A6905490A401A6100231800E2
:103550007047C0460054004000100240FFFFDFFFEC
:103560000122036830B593430360CB688D681B026A
:1035700004682B43144D2C40234303604B68134CC9
:10358000036103680D691A43026083688A692340F6
:10359000836083682A43DB0ADB021A438260002DC2
:1035A00004D0802382681B02134383600268084BA7
:1035B0001A400B681A43026043684A692340134368
:1035C0004360002030BDC046FFE0FFFFFF7FFFFFEC
:1035D000FFFFCFFF014B18607047C0461401002069
:1035E00010B5034B0A000100186800F03EF810BD4A
:1035F00020010020014B18687047C04620010020C0
:1036000070B500260C4D0D4C641BA410A64209D1C8
:10361000002600F013F90A4D0A4C641BA410A642C0
:1036200005D170BDB300EB5898470136EEE7B30003
:10363000EB5898470136F2E7543800085438000830
:103640005438000858380008002310B59A4200D1B9
:1036500010BDCC5CC4540133F8E7030082189342D8
:1036600000D1704719700133F9E770B5130C0D0CD8
:103670001ED1002B0CD189B294B24C43210000F032
:1036800043F8051E1BD022000021FFF7E6FF16E0DD
:103690001D1C0B1C92B289B29CB25143ABB2634366
:1036A0000C0C1C19220C07D1240489B20C43E5E749
:1036B000002B01D1131CEDE70C230025036028002B
:1036C00070BD000070B50F4E0D0031680400002978
:1036D00002D100F08FF830602900200000F08AF855
:1036E000431C0AD00323C51C9D43A84207D0291AB6
:1036F000200000F07FF8431C01D101256D42280015
:1037000070BDC0460C080020F7B50322CB1C9343C4
:10371000083306001F000C2B32D20C27B94231D8D7
:10372000300000F079F8324D2B681C00002C2ED1AF
:1037300039003000FFF7C6FF0400431C1ED12C687F
:103740002500002D4AD123682900E3183000019399
:1037500000F050F8019B834243D123680337FF1ADE
:1037600003239F4308370C2F00D20C273900300069
:10377000FFF7A8FF431C34D02368DF19276013E04C
:10378000002BCBDA0C23002533602800FEBD226815
:10379000D11B20D40B2917D9E2192760A34211D1DC
:1037A0002A606368116053603000250000F03CF827
:1037B00007220B35231D9543EA1A9D42E5D05B1B7A
:1037C000A350E2E75A60ECE76268A34201D12A60A5
:1037D000EAE75A60E8E723006468A7E72C006D6811
:1037E000AFE70C233000336000F01EF8CDE7C04691
:1037F00008080020002370B5064D040008002B6067
:10380000FEF72CFF431C03D12B68002B00D0236054
:1038100070BDC0461008002010B5024800F00CF83A
:1038200010BDC0461408002010B5024800F005F88D
:1038300010BDC0461408002070477047F8B5C04658
:10384000F8BC08BC9E467047F8B5C046F8BC08BC3A
:103850009E467047E9100008C11000080300F401FB
:10386000E803D007A00F401F01050A1428500000EC
:1038700000000048010000000000004802000000B5
:10388000000000480400000000000048080000009C
:103890000000004810000000000000482000000068
:1038A00000000048400000000000004880000000C8
:1038B00000127A0001000000040000002401002032
:1038C00000000000000000000000000000000000F8
:1038D00000000000000000000000000000000000E8
:1038E00000000000000000000000000000000000D8
:1038F00000000000000000000000000000000000C8
:103BF000FFFFFFFFFFFFFFFFFFFFFFFF9E154B9E35
:103C0000FFFFFFFFFFFFFFFFFFFFFFFFFFFFFFFFC4
:103C1000FFFFFFFFFFFFFFFFFFFFFFFFFFFFFFFFB4
:103C2000FFFFFFFFFFFFFFFFFFFFFFFFFFFFFFFFA4
:103C3000FFFFFFFFFFFFFFFFFFFFFFFFFFFFFFFF94
:00000001FF
